:040000000128FE2FA6
:100EE80021000C158C140C128C1270309900230000
:100EF8008C0121009513F82FF20120000C166830A0
:100F0800F000E430890B862FF00B862F003220008A
:100F18000C120530F1000F30F000F130890B922FE0
:100F2800F00B922FF10B922F00000130F0007008A7
:100F3800F20704307202031CA22FA32F812F200076
:100F48000C1DA72FA82FD02F0930F1001E30F0005C
:100F5800E430890BAD2FF00BAD2FF10BAD2F003224
:100F680020008C160530F1000F30F000F130890BAD
:100F7800BB2FF00BBB2FF10BBB2F000020008C12F6
:100F88000930F1001E30F000E430890BC92FF00B56
:100F9800C92FF10BC92F003220000C19D42FD52FDF
:100FA800F82FF20120008C166830F000E430890B2D
:100FB800DB2FF00BDB2F003220008C120530F10004
:100FC8000F30F000F130890BE72FF00BE72FF10B12
:100FD800E72F00000130F0007008F20704307202B9
:100FE800031CF72FF82FD62F20008C18FC2FFD2F6D
:080FF800802F01282000742F56
:020000040001F9
:08000000FF3FFF3FFF3FFF3F00
:04000E00E43FFF3F8D
:00000001FF
