:100000000428FF3FFF3FFF3F05282000072821006D
:100010000C158C150C128C127030990023008C0179
:10002000210095138B28F20120008C166830F00017
:10003000E430890B1928F00B1928003220008C12AB
:100040000530F1000F30F000F130890B2528F00B5E
:100050002528F10B252800000130F0007008F20778
:1000600004307202031C35283628142820000C1D89
:100070003A283B2863280930F1001E30F000E430B4
:10008000890B4028F00B4028F10B4028003220005B
:100090000C160530F1000F30F000F130890B4E28BE
:1000A000F00B4E28F10B4E28000020000C120930F6
:1000B000F1001E30F000E430890B5C28F00B5C2866
:1000C000F10B5C28003220000C19672868288B2867
:1000D000F20120000C166830F000E430890B6E2825
:1000E000F00B6E28003220000C120530F1000F30AA
:1000F000F000F130890B7A28F00B7A28F10B7A287E
:1001000000000130F0007008F20704307202031C96
:100110008A288B28692820008C198F28902813287A
:100120000428FF3FFF3FFF3FFF3FFF3FFF3FFF3FF1
:020000040001F9
:04000E00E43FFF3F8D
:00000001FF
